:10000000000001308A0094298030A100FE300F21C9
:1000100001300F217530A70030302F29A101A11721
:10002000B500FE300F2135080F29A011250803194E
:10003000A0150530A4002730AB0010302B20033072
:10004000AB00E8302B20AB0164302B20AB010A3031
:100050002B202E083228AA002F08A7002E08A60061
:1000600074212608A600A4030319A011250803196A
:100070003C282402031843282608031DA011A019B8
:100080004328303E0F290800C300B81F49282D30EF
:100090000F21BA0F5028B90F5028B80A0319B80A0F
:1000A000BF01C001C101C201B8176A30B707031010
:1000B000B80CB90CBA0CC20CC10CC00CBF0CB70FF9
:1000C00057283A083702BA07B70239083802B90781
:1000D000B802A501A3202E300F21C40103103F0D4B
:1000E000BA00400DB900410DB800420DB700C40D73
:1000F0000310BA0DB90DB80DB70DC40D3F08BA07FE
:1001000040080318400FB90741080318410FB8070A
:1001100042080318420FB7070318C40F0310BA0DA3
:10012000B90DB80DB70DC40D4408303E0F213A0883
:10013000BF003908C0003808C1003708C200C30B2F
:100140006D2803109029A0112508031DAA28A015C9
:100150000A30A5003A08A9003908A8003808A70005
:100160003708A600A401B101B001AF010A30AE000A
:100170003E21A40A24082502031DB3282E08031DCE
:10018000A011A01DC528250BC8282E08303E0F2120
:10019000A50BAA289029B30089100911831689108C
:1001A0000911880183123308A018F1283E30A700F6
:1001B00080302F213330B20004211330A700883063
:1001C0002F21042164302E21042164302E21383067
:1001D000F0200C30F0200630F020A0143308F12875
:1001E0002014B200201CFF280911033C031C042921
:1001F00004210730A700D0302F2103140800201459
:10020000FE3C03190D2909158914320888000000E5
:1002100009292010891032302E2133089029A11B82
:10022000CB280800A400A201240803178D000313A3
:10023000250803178F002521031990290F21A40AEF
:100240000319A50AA20F14299029831603178C17E6
:100250000C140000000083120C089029A701FC3E3A
:10026000A600A709031C3A29FF300000A6070318BF
:100270003529A6070000A70F34290800BB01BC01DF
:10028000BD01BE012130AC006529BB0DBC0DBD0D0B
:10029000BE0D2E083B022F08031C2F0F3C02300816
:1002A000031C300F3D023108031C310F3E02031CBA
:1002B0006529BE002E08BB022F08031C2F0FBC02AD
:1002C0003008031C300FBD020314A60DA70DA80DA6
:1002D000A90DAC0B45293E08B1003D08B0003C0813
:1002E000AF003B08AE009029AF01AE011030B20064
:1002F000270DAE0DAF0D2A08AE022B08031C2B0FE5
:10030000AF0203188A292A08AE072B0803182B0FFF
:10031000AF070310A60DA70DB20B78292608080019
:1003200083138312031308008301A001073083168F
:100330009F009C00880189018312C6010C30C50012
:100340000430C800D230C7003630CC00FF30CB00BC
:100350007630CA008830C9008A0104208030A100AC
:100360008A010E200230A50025308A01122180303A
:10037000A100C5308A010E200230A50034308A0168
:1003800012218030A10094308A010E2053308A015E
:10039000CB2031308A01CB203D308A01CB20A50112
:1003A0004508AE004608AF008A0115208030A10044
:1003B000D4308A010E2053308A01CB2032308A019A
:1003C000CB203D308A01CB20A5014708AE0048086C
:1003D000AF008A0115208030A1009A308A010E20DA
:1003E00046308A01CB203D308A01CB204C08BA0030
:1003F0004B08B9004A08B8004908B70002308A0122
:1004000044208030A100DC308A010E2046308A0171
:10041000CB203D308A01CB204C08BA004B08B900F4
:100420004A08B8004908B70003308A0144208030E8
:10043000A100D6308A010E200230A5003F308A018B
:1004400012218A01212A8A01232A2000200020006B
:1004500020002000200020004D00450052004800F0
:1004600041004200410000004D0045004B004100AA
:10047000540052004F004E0049004B0000004D0058
:0E0480004500520048004100420041000000CB
:02400E00323F3F
:00000001FF
