:10000000000000308A002528A301A200FF30A207CB
:10001000031CA307031C21280330A100E630122093
:100020000628A101FC3EA000A109031C1D28FF30E9
:100030000000A00703181828A0070000A10F172828
:10004000080083138312031308008301073083160B
:100050009F009C0088010614831224100130A60022
:10006000F430A500013088002608A30025088A0185
:1000700005208A110A12241842280310880D8A11BB
:100080000A1244280310880C2608A30025088A01B8
:100090000520803008028A110A12031D50282414FA
:1000A000013008028A110A12031D572824108A0100
:0600B00039288A015928DD
:02400E00323F3F
:00000001FF
