:10000000000000308A002528A301A200FF30A207CB
:10001000031CA307031C21280330A100E630122093
:100020000628A101FC3EA000A109031C1D28FF30E9
:100030000000A00703181828A0070000A10F172828
:10004000080083138312031308008301073083160B
:100050009F009C008801FF3086008312A5010130BB
:10006000A6002410A900F430A800A5011030250234
:100070008A110A1203184A288A110A124C200130E8
:10008000A300F4308A0105200230A5078A110A1264
:10009000031C36288A013528A5088A110A12031D77
:1000A00056283F3088008A110A12F82801302502AC
:1000B0008A110A12031D6128063088008A110A126B
:1000C000F828023025028A110A12031D6C285B30C1
:1000D00088008A110A12F828033025028A110A12B0
:1000E000031D77284F3088008A110A12F82804303F
:1000F00025028A110A12031D8228663088008A119F
:100100000A12F828053025028A110A12031D8D28CB
:100110006D3088008A110A12F828063025028A11EB
:100120000A12031D98287D3088008A110A12F828C7
:10013000073025028A110A12031DA3280730880000
:100140008A110A12F828083025028A110A12031DA2
:10015000AE287F3088008A110A12F828093025025B
:100160008A110A12031DB9286F3088008A110A12F9
:10017000F8280A3025028A110A12031DC428773094
:1001800088008A110A12F8280B3025028A110A12F7
:10019000031DCF287C3088008A110A12F8280C3001
:1001A00025028A110A12031DDA28393088008A11C3
:1001B0000A12F8280D3025028A110A12031DE528BB
:1001C0005E3088008A110A12F8280E3025028A1142
:1001D0000A12031DF028793088008A110A12F828C3
:1001E0000F3025028A110A12031DF8287130880089
:0601F00008008A01F92855
:02400E00323F3F
:00000001FF
