:10000000000000308A002528A301A200FF30A207CB
:10001000031CA307031C21280330A100E630122093
:100020000628A101FC3EA000A109031C1D28FF30E9
:100030000000A00703181828A0070000A10F172828
:10004000080083138312031308008301073083160B
:100050009F009C008801061483122410A601C8305A
:10006000A500013088002608A30025088A01052084
:100070008A110A12241842288A110A125A208A1157
:100080000A1245288A110A125D202608A3002508B5
:100090008A010520803008028A110A12031D5128A6
:1000A0002414013008028A110A12031D5828241052
:1000B0008A0138280310880D08000310880C0800F6
:0400C0008A01602829
:02400E00323F3F
:00000001FF
