:10000000000000308A002528A301A200FF30A207CB
:10001000031CA307031C21280330A100E630122093
:100020000628A101FC3EA000A109031C1D28FF30E9
:100030000000A00703181828A0070000A10F172828
:10004000080083138312031308008301073083160B
:100050009F009C008801FF3086008312A5010130BB
:10006000A6002410A900F430A8008A110A12472023
:10007000A50A103025028A110A12031D4028A50185
:100080000330A300E8308A0105208A013528A5083D
:100090008A110A12031D51283F3088008A110A1262
:1000A000F328013025028A110A12031D5C2806304C
:1000B00088008A110A12F328023025028A110A12D6
:1000C000031D67285B3088008A110A12F328033069
:1000D00025028A110A12031D72284F3088008A11E6
:1000E0000A12F328043025028A110A12031D7D2802
:1000F000663088008A110A12F328053025028A1119
:100100000A12031D88286D3088008A110A12F3280C
:10011000063025028A110A12031D93287D308800BB
:100120008A110A12F328073025028A110A12031DC8
:100130009E28073088008A110A12F3280830250209
:100140008A110A12031DA9287F3088008A110A1219
:10015000F328093025028A110A12031DB4286F30D2
:1001600088008A110A12F3280A3025028A110A121D
:10017000031DBF28773088008A110A12F3280B303C
:1001800025028A110A12031DCA287C3088008A11B0
:100190000A12F3280C3025028A110A12031DD528F1
:1001A000393088008A110A12F3280D3025028A118D
:1001B0000A12031DE0285E3088008A110A12F32813
:1001C0000E3025028A110A12031DEB2879308800AF
:1001D0008A110A12F3280F3025028A110A12031D10
:0C01E000F3287130880008008A01F42820
:02400E00323F3F
:00000001FF
