:10000000000000308A00E4288030A100FE30882003
:10001000013088207530A7003030B528A101A11724
:10002000AF00FE3088202F088828A011250803196A
:10003000A0150530A4002730A90010302B20033074
:10004000A900E8302B20A90164302B20A9010A3037
:100050002B202A083228A8002B08A7002A08A6006F
:10006000C4202608A600A4030319A011250803191B
:100070003C282402031843282608031DA011A019B8
:100080004328303E88280800AD00891009118316E6
:1000900089100911880183122D08A0186A283E30A2
:1000A000A7008030B5203330AC007D201330A7008E
:1000B0008830B5207D206430B4207D206430B420A9
:1000C000383069200C30692006306920A0142D08D2
:1000D0006A282014AC00201C78280911033C031C5A
:1000E0007D287D200730A700D030B52003140800FC
:1000F0002014FE3C03198628091589142C08880051
:1001000000008228201089103230B4202D08E02809
:10011000A11B44280800A400A201240803178D0095
:100120000313250803178F009E200319E028882059
:10013000A40A0319A50AA20F8D28E0288316031725
:100140008C170C140000000083120C08E028A90191
:10015000A800FF30A807031CA907031CE0280330F0
:10016000A700E630B520A928A701FC3EA600A709F4
:10017000031CC028FF300000A6070318BB28A607F1
:100180000000A70FBA280800AB01AA011030AC008C
:10019000270DAA0DAB0D2808AA022908031C290F58
:1001A000AB020318DA282808AA0729080318290F20
:1001B000AB070310A60DA70DAC0BC8282608080036
:1001C00083138312031308008301A00107308316F1
:1001D0009F009C00880189010F3086008312B101C5
:1001E000B0010430B300D230B2003630B700FF3077
:1001F000B6007630B5008830B4008A010420803023
:10020000A1008A010E200230A5000F308A018B2048
:100210008030A100C5308A010E200230A5001E30BA
:100220008A018B208A110A124D218A110A121A2181
:100230008A011229B1088A110A12031D25290A30E0
:1002400030028A110A12031C3B29803083120313E7
:10025000A10094308A010E200230A50029308A01C5
:100260008B20A5013008AA003108AB008A011520B7
:100270008A110A124C298030A10094308A010E2084
:100280000230A50030308A018B20A5013008AA0079
:100290003108AB008A01152008008316061283126C
:1002A00006160A308A01A7208A110A12061C5E2946
:1002B000B1010130B0008A110A1279298A110A129B
:1002C000861C6829B1010430B0008A110A1279290C
:1002D0008A110A12061D7229B1010730B0008A1175
:1002E0000A1279298A110A12861D7929B1010E3064
:1002F000B00083160612831206128316861283122A
:1003000086160A308A01A7208A110A12061C8E2935
:10031000B1010230B0008A110A12A8298A110A120A
:10032000861C9829B1010530B0008A110A12A8294B
:100330008A110A12061DA229B1010830B0008A11E3
:100340000A12A8298A110A12861DA829B101B00132
:1003500083168612831286128316061383120617DB
:100360000A308A01A7208A110A12061CBD29B10190
:100370000330B0008A110A12D8298A110A12861C89
:10038000C729B1010630B0008A110A12D8298A1192
:100390000A12061DD129B1010930B0008A110A12D2
:1003A000D8298A110A12861DD829B1010F30B00050
:1003B0008316061383120613831686138312861779
:1003C0000A308A01A7208A110A12061CED29B10100
:1003D0000A30B0008A110A12082A8A110A12861CF1
:1003E000F729B1010B30B0008A110A12082A8A11CC
:1003F0000A12061D012AB1010C30B0008A110A123E
:10040000082A8A110A12861D082AB1010D30B0008F
:10041000831686138312861308008A010D2A200092
:100420002000200020002000200020004D0045007A
:100430005200480041004200410000004D004500CC
:100440004B004100540052004F004E0049004B0049
:100450000000530041005900490020003D00000009
:10046000530041005900490020003D0020000000D9
:02400E00323F3F
:00000001FF
