:10000000000000308A0004288301073083169F0017
:100010009C008801FF3086008312A1010130A200FC
:100020002010A500F430A4008A110A12061C27280B
:100030008A110A12061818288A110A122920A10A00
:10004000103021028A110A12031D2728A1018A01FA
:100050001428A1088A110A12031D33283F30880092
:100060008A110A12D528013021028A110A12031DB1
:100070003E28063088008A110A12D5280230210253
:100080008A110A12031D49285B3088008A110A125E
:10009000D528033021028A110A12031D54284F303B
:1000A00088008A110A12D528043021028A110A1206
:1000B000031D5F28663088008A110A12D528053092
:1000C00021028A110A12031D6A286D3088008A11E4
:1000D0000A12D528063021028A110A12031D75283A
:1000E0007D3088008A110A12D528073021028A1132
:1000F0000A12031D8028073088008A110A12D528A9
:10010000083021028A110A12031D8B287F308800D3
:100110008A110A12D528093021028A110A12031DF8
:1001200096286F3088008A110A12D5280A302102D9
:100130008A110A12031DA128773088008A110A1239
:10014000D5280B3021028A110A12031DAC287C30FD
:1001500088008A110A12D5280C3021028A110A124D
:10016000031DB728393088008A110A12D5280D30AE
:1001700021028A110A12031DC2285E3088008A11EA
:100180000A12D5280E3021028A110A12031DCD2829
:10019000793088008A110A12D5280F3021028A117D
:1001A0000A12031DD5287130880008008A01D6285C
:02400E00323F3F
:00000001FF
