:10000000000000308A002528A301A200FF30A207CB
:10001000031CA307031C21280330A100E630122093
:100020000628A101FC3EA000A109031C1D28FF30E9
:100030000000A00703181828A0070000A10F172828
:1000400008008313831203130800830183168801B9
:100050000614831224100130A600F430A5000130EC
:1000600088002608A30025088A0105208A110A12A3
:10007000241840288A110A1256208A110A1243288D
:100080008A110A1258202608A30025088A01052093
:10009000080A8A110A12031D4E28241488088A119E
:1000A0000A12031D542824108A013628880A0800E1
:0800B000880308008A015A28A8
:02400E00323F3F
:00000001FF
