:10000000000000308A002528A301A200FF30A207CB
:10001000031CA307031C21280330A100E630122093
:100020000628A101FC3EA000A109031C1D28FF30E9
:100030000000A00703181828A0070000A10F172828
:1000400008008313831203130800830183168801B9
:10005000FF3086008312A5010130A6002410A900FC
:10006000F430A80088012908A30028088A01052087
:100070008A110A12061C3F280130A50088018A1146
:100080000A12861C4D280230A5002410260888007C
:100090002908A30028088A0105208A110A12061DD2
:1000A00056280330A50024102708880001302502B7
:1000B0008A110A12031D62288A110A1279208A11F4
:1000C0000A127728023025028A110A12031D6E28AF
:1000D0008A110A1284208A110A1277280330250215
:1000E0008A110A12031D77288A110A12A5208A0193
:1000F0003828FF3088068316880183122908A30058
:1001000028088A01052008008A110A1224188D285F
:100110000310880D8A110A128F280310880C080812
:10012000A6002908A30028088A01052080300802BB
:100130008A110A12031D9D282414013008028A1115
:100140000A12031DA428241008008A110A12241878
:10015000AF288A110A12C7208A110A12B2288A11FE
:100160000A12C9200808A7002908A30028088A0144
:100170000520093008028A110A12031DC028241420
:1001800088088A110A12031DC62824100800880A4C
:0A0190000800880308008A01CB284C
:02400E00323F3F
:00000001FF
