:10000000000000308A008C288030A100FE3059208A
:10001000013059207530A70030307928A101A1178F
:10002000AB00FE3059202B085928A900891009116E
:10003000831689100911880183122908A0183B280A
:100040003E30A700803079203330A8004E20133096
:10005000A700883079204E20643078204E2064300C
:10006000782038303A200C303A2006303A20A0145C
:1000700029083B282014A800201C49280911033C0A
:10008000031C4E284E200730A700D03079200314DF
:1000900008002014FE3C0319572809158914280864
:1000A0008800000053282010891032307820290859
:1000B0008828A11B15280800A400A2012408031702
:1000C0008D000313250803178F006F20031988285C
:1000D0005920A40A0319A50AA20F5E2888288316AE
:1000E00003178C170C140000000083120C088828DA
:1000F000A701FC3EA600A709031C8428FF300000CE
:10010000A60703187F28A6070000A70F7E2808006F
:1001100083138312031308008301A00107308316A1
:100120009F009C008801890183128A01042080308D
:10013000A1008A010E200030A500AE308A015C20AB
:100140008030A100C0308A010E200030A500B630FA
:100150008A015C208A01AA288A01AC284D0045004A
:100160005200480041004200410000004D0045009F
:100170004B004100540052004F004E0049004B001C
:0201800000007D
:02400E00323F3F
:00000001FF
