:10000000000000308A002528A301A200FF30A207CB
:10001000031CA307031C21280330A100E630122093
:100020000628A101FC3EA000A109031C1D28FF30E9
:100030000000A00703181828A0070000A10F172828
:10004000080083138312031308008301073083160B
:100050009F009C008801061483128A110A12081856
:100060003E288A110A12061C3B2808140130A300FE
:10007000F4308A0105208A110A1248288A110A12CE
:10008000061C482808100130A300F4308A0105201E
:080090008A012C288A014A288C
:02400E00323F3F
:00000001FF
